:100000000C9434000C943E000C943E000C943E0082
:100010000C943E000C943E000C943E000C943E0068
:100020000C943E000C943E000C943E000C943E0058
:100030000C943E000C943E000C943E000C943E0048
:100040000C943E000C943E000C943E000C943E0038
:100050000C943E000C943E000C943E000C943E0028
:100060000C943E000C943E0011241FBECFEFD8E04C
:10007000DEBFCDBF0E9440000C94CD000C94000068
:100080000E946A000E94B8000E94B8000E94C1004D
:10009000813138F085E00E949A0083E20E947C0062
:1000A000F3CF0E94C100823038F483E20E949A00AC
:1000B00085E00E947C00E8CF89E10E949A0089E1F6
:1000C0000E947C00E1CF8AB180668AB90895239AA4
:1000D000539A08950E9463000E94670008955B9AF6
:1000E0005B9808958BB180668BB908952B9A5B98C5
:1000F00008952B9A5B9A0895CF93DF93D82FC0E091
:10010000CD1718F40E946F000FC00E94720008C043
:10011000CD1718F00E94720003C00E946F0004C047
:10012000CF5FC33620F4F4CFCF5FC33648F3DF91FF
:10013000CF910895CF93DF93D82FC0E0CD1718F457
:100140000E9476000FC00E94790008C0CD1718F0F9
:100150000E94790003C00E94760004C0CF5FC336BE
:1001600020F4F4CFCF5FC33648F3DF91CF910895E9
:100170003D9A459A87B1807E87B988B18F6188B9E9
:10018000089580E186B988E086B984E086B982E086
:0E01900086B981E086B98FE10895F894FFCF1B
:00000001FF
